S010000070726F6A656374322E73726563EB
S113000071C000008EC000008CC000008AC00000D7
S113001088C0000086C0000084C0000082C00000C8
S113002080C000007EC000007CC000007AC00000D8
S113003078C0000076C0000074C0000072C00000E8
S113004070C000006FC000006CC000006AC00000F7
S113005068C0000066C0000064C0000062C0000008
S113006060C000005EC000005CC000005AC0000018
S113007058C0000056C0000054C0000052C0000028
S113008050C000004EC000004CC000004AC0000038
S113009048C0000046C0000044C0000042C0000048
S11300A040C000003EC000003CC000003AC0000058
S11300B038C0000036C0000034C0000032C0000068
S11300C030C000002EC000002CC000002AC0000078
S11300D028C0000026C0000024C0000022C0000088
S11300E020C0000011241FBECFEFD1E2DEBFCDBF80
S11300F000E00CBF12E0A0E0B2E0EEEAF2E000E0C3
S11301000BBF02C007900D92A230B107D9F722E0CD
S1130110A2E0B2E001C01D92A530B207E1F7C4D05D
S1130120C4C06ECFFF93FFB7F894F068FF93EF93CA
S1130130DF93CF93BF93AF939F938F937F936F93EB
S11301405F934F933F932F931F930F93FF92EF92DD
S1130150DF92CF92BF92AF929F928F927F926F92D3
S11301605F924F923F922F921F920F928DB79EB73C
S11301709093010180930001809103029091040205
S11301809EBF8DBF81E080930202E8E8F0E08081A9
S11301909181805F984D9183808380910302909137
S11301A004029EBF8DBF0F901F902F903F904F90E1
S11301B05F906F907F908F909F90AF90BF90CF9003
S11301C0DF90EF90FF900F911F912F913F914F91EE
S11301D05F916F917F918F919F91AF91BF91CF91DB
S11301E0DF91EF91FF91FFBFFF910895F89480EFA5
S11301F08AB980910002863028F4809100028F5FD2
S113020030E604C080910002855030E940EF4BB9DC
S113021094E62FE758E361E0215050406040E1F755
S113022000C000009150A9F71BB898E27FE728E3CB
S113023051E0715020405040E1F700C0000091505F
S1130240A9F79817E1F03BB92AE06FE778E351E0AA
S1130250615070405040E1F700C000002150A9F700
S11302601BB82AE06FE778E351E0615070405040DA
S1130270E1F700C000002150A9F79F5FE2CF94E1AD
S11302806FE778E321E0615070402040E1F700C05F
S113029000009150A9F7BBCFE1E8F0E080818260D3
S11102A0808310920002A2DFF7DFF894FFCFF4
S10502AE060044
S9030000FC
